:020000040801F1
:100100005011002001020108110201081302010828
:100110001502010817020108190201080000000079
:100120000000000000000000000000001B020108A9
:100130001D02010800000000000000001F0201086D
:100140000000000000000000000000002102010883
:10015000000000000000000000000000000000009F
:10016000000000009122010841220108A12101089C
:1001700009220108B10F0108BB0F0108C50F0108D2
:10018000CF0F0108D90F010821020108210201083F
:10019000210201080D23010821020108852401081C
:1001A0002D2501087D120108F7230108012401080B
:1001B0000B240108152401081F2401082924010823
:1001C000ED2501082102010821020108C9220108C8
:1001D00021020108D9210108210201082102010898
:1001E000CD1201083125010800000000DFF80CD015
:1001F00000F016FC00480047BD58010850110020CF
:10020000084880474FF0000080F3108806480047F8
:10021000FEE7FEE7FEE7FEE7FEE7FEE7FEE7FEE7B6
:10022000FEE70000D3230108ED01010840EA0103C5
:100230009B0703D009E008C9121F08C0042AFAD29C
:1002400003E011F8013B00F8013B521EF9D2704760
:10025000D2B201E000F8012B491EFBD27047002208
:10026000F6E710B513460A4604461946FFF7F0FFB5
:10027000204610BDF0B480EA0102D40F4200B2EB78
:10028000410F02D20246084611464A0042D0C30D31
:10029000DDB2C1F3C752AD1A202D35DAC1F3160114
:1002A00041F4000204B15242C5F1200602FA06F1FF
:1002B0002A411044B3EBD05F23D0C4B1012DA0EB91
:1002C000C35009DCF0BC4FF0004202EAC352DBB27B
:1002D00000F5000000F019BB400000F1807000EB59
:1002E000C350A0F1807040EAD170490009E049088C
:1002F00041EAC071A0EBC35000F50000400800EBDC
:10030000C350F0BC00F0F8BA6142012202EB410197
:10031000001BF6E7F0BC704781F00041AAE780F0CF
:100320000040A7E780EA010210B502F00043400058
:1003300022D04A001FD0010E01EB1261C0F356001B
:10034000C2F3560240F4000042F40002A0FB022077
:1003500000047F39140400D0401C50EA124001D43C
:100360004000491EC2B20C0604EBD010401C4008ED
:10037000802A02D003E0002010BD20F001000029F7
:1003800000DA0020184310BD30B480EA010202F008
:10039000004530F0004221F0004013D090B1C30D71
:1003A000D40DC2F31601C0F31600E41A41F40001A3
:1003B00040F400027D34914201D3641C00E0490006
:1003C000002C02DA30BC002070474FF400000023FC
:1003D000914201D3891A034340084FEA4101F7D102
:1003E00051B1914202D14FF0004105E002D24FF0ED
:1003F000010101E06FF0010103EBC450284430BC5F
:1004000000F07ABA2DE9FE4F804681EA0300C00F62
:100410000C46009021F0004123F00045B8EB0200AB
:10042000A94105D24046214690461C460B4602464D
:1004300023F00040104347D0270DC7F30A00C3F351
:100440000A510290401A019040286BDAC3F313005E
:1004500040F4801B0098924620B10023D2EB030A9F
:1004600063EB0B0B01985946C0F14002504600F077
:1004700012FA06460D4650465946019A00F02AFAED
:1004800010EB08006141002487EA115284EAE77307
:100490001A4340D0009A62B3019A012A4FEA0752E8
:1004A00015DC001B61EB02014FF0004202EA07522B
:1004B000CDE90042001C41F5801132462B4600F088
:1004C00061FA03B0BDE8F08F40462146F9E7001B12
:1004D00061EB0201001C41F5801300185B412018FC
:1004E000A2F5001747EB030140EAD570B6196D413C
:1004F00011E06D084FEA360645EAC0754FEA07522B
:10050000001B61EB0201001C41F5801149084FEA14
:1005100030000019514132462B4603B0BDE8F04F80
:1005200000F021BA0098012240000023D0EB020223
:1005300063EBE073009821464FEAE074B8EB0000EB
:1005400061EB0401E9E783F000435BE781F00041E0
:1005500058E72DE9FE4F81EA030404F0004421F03E
:10056000004100944FF0000B23F0004350EA0104D7
:100570005ED052EA03045BD0C3F30A54C1F30A55B8
:100580002C44A4F2F3340194A0FB0254C1F31301F0
:1005900041F48011C3F3130343F4801301FB0244BD
:1005A00000FB034E840A970A44EA815447EA8357C2
:1005B000A4FB076802958D0A05FB07854FEA932C7B
:1005C00004FB0C542705029D4FEA065847EA1637EC
:1005D000B5EB08056EEB070C870E920E47EA811704
:1005E00042EA8312A7FB0201B6EB0B0164EB0004A5
:1005F0002B0D43EA0C335E1844EB1C50DA4651468F
:10060000E7FB0201C5F313044FEA0B3343EA14532B
:100610004FEA0432019C43EA0603A4F10C0402945D
:10062000009CCDE900B400F0ADF903B0BDE8F08F57
:1006300000200146F9E72DE9F04D81EA030404F0BA
:10064000004B21F0004514464FF0000A23F0004112
:1006500050EA050220D054EA01021DD0C5F30A5722
:100660000246C5F31303C1F31300C1F30A5640F465
:10067000801543F48013A7EB0608101BD64608F23A
:10068000FD3873EB050002D308F1010801E0921870
:100690005B41B8F1000F03DA00200146BDE8F08DA0
:1006A00000204FF48011064684460EE0171B73EBC2
:1006B000050705D3121B63EB050306434CEA010C47
:1006C00049084FEA300092185B4150EA0107EDD12A
:1006D00052EA030012D082EA040083EA05010843CB
:1006E00005D0101BAB4106D20122002306E00022F8
:1006F0004FF0004302E06FF0010253101AEB0600C6
:100700004CEB085110EB0A0041EB0B01BDE8F04D3A
:1007100000F029B9C10F80EAE0700844CA079623A7
:10072000002100F0F2B80EB5C10F80EAE070084475
:10073000CA07002140F233438DE80E000A460B46FB
:1007400000F020F903B000BD20F00040C10DC0F35F
:10075000160040F400007F2901DA00207047962936
:1007600003DCC1F19601C840704796398840704754
:1007700070B5C1F30A5201F000450024C1F3130122
:1007800040F2FF3341F480119A4201DA002070BD3B
:1007900040F233439A42A2F2334203DC524200F069
:1007A00089F800E090402C43F1D0404270BD00F049
:1007B000004230F000400AD0C10D01F56071C0F375
:1007C000160042EA0151C208400711437047002059
:1007D0000146704701F0004330B421F0004150EA77
:1007E000010206D00A0DA2F56072C1F31301002ABE
:1007F00002DC30BC00207047440F44EAC104C10051
:10080000E01830BC00EBC25000F076B8002801DBE5
:10081000C0F10040002901DBC1F100418142704775
:10082000002801DBC0F10040002901DBC1F10041DB
:10083000884270472DE9F05F0546002092469B46AE
:1008400088460646814640241BE0284641464746E6
:10085000224600F02FF853465A46C01A914110D351
:1008600011461846224600F016F82D1A67EB0108CB
:100870004F4622460120002100F00DF817EB000939
:100880004E41201EA4F10104DFDC484631462A46D1
:100890004346BDE8F09F202A04DB203A00FA02F12B
:1008A000002070479140C2F1200320FA03F319435E
:1008B00090407047202A04DB203A21FA02F0002100
:1008C000704721FA02F3D040C2F120029140084360
:1008D00019467047202A06DBCB17203A41FA02F06E
:1008E00043EAE07306E041FA02F3D040C2F120028D
:1008F00091400843194670470029A8BF7047401C23
:10090000490008BF20F00100704710B4B0FA80FC25
:1009100000FA0CF050EA010404BF10BC704749B162
:10092000CCF1200421FA04F411FA0CF118BF0121D2
:1009300021430843A3EB0C01CB1D4FEA00614FEAB2
:10094000102042BF002010BC704700EBC350104481
:100950000029A4BF10BC7047401C490008BF20F00C
:10096000010010BC704710B5141E73F1000408DAC2
:10097000401C41F1000192185B411A4301D120F063
:10098000010010BD2DE9F04D92469B4611B1B1FA20
:1009900081F202E0B0FA80F220329046FFF77BFF4E
:1009A00004460F4640EA0A0041EA0B0153465A4604
:1009B000084313D0114653EA010019D0C8F1400290
:1009C0005046FFF777FF05460E46504659464246C9
:1009D000FFF761FF084305D0012004E020463946B7
:1009E000BDE8F08D0020054346EAE0762C4337430E
:1009F0000A986305E40AA0EB08000022FD0A44EA15
:100A000047540A3002D500200146E9E701051019D4
:100A10006941DDE9084500196941BDE8F04DA2E7EB
:100A2000064C074D06E0E06840F0010394E807003B
:100A300098471034AC42F6D3FFF7DCFB04140408EB
:100A40002414040838B50020009000F079FE00F06E
:100A5000A9F808B1012038BD02226946A82000F09B
:100A600005F904460CB10120F5E74FF4967002F049
:100A700073FB08208DF8000000208DF80100022291
:100A80006946E12000F0F2F804460CB10220E2E7EA
:100A90004FF4967002F060FB0020DCE710B50024F4
:100AA00000F0C0FE712000F09BFE00F0EBFE18B1DC
:100AB00000F0D0FE012010BD002000F067FE0446CB
:100AC00000F0C8FE2046F6E770B505460E4600F079
:100AD000A9FE712000F084FE00F0D4FE18B100F0F1
:100AE000B9FE012070BD00240DE0701EA04204D1AB
:100AF000002000F04BFE285503E0012000F046FEE8
:100B00002855601CC4B2B442EFDB00F0A3FE002005
:100B1000E8E700002DE9FE4F4FF0000A00200290A8
:100B200000F040F810B10020BDE8FE8F022202A9BB
:100B3000AC2000F09BF88246BAF1000F01D00020F3
:100B4000F2E7322002F008FB06216846FFF7BCFFFF
:100B50008246BAF1000F01D00020E5E79DF80110B0
:100B600009039DF8022041EA02119DF8032002F0DA
:100B7000F00241EA0200FFF7D6FD80460022074B53
:100B8000FFF7E7FC06460022054BFFF754FD04463D
:100B9000FFF720FE83465846C6E700000000594094
:100BA0000000304110B5142408E0FFF777FF192842
:100BB00001D1002010BD642002F0CEFA201EA4F165
:100BC0000101CCB2F1D10120F4E700002DE9F04F92
:100BD00085B04FF0000A00200490FFF7E3FF18B142
:100BE000002005B0BDE8F08F022204A9AC2000F07F
:100BF0003DF88246BAF1000F01D00020F1E7322023
:100C000002F0AAFA062102A8FFF75EFF8246BAF1B7
:100C1000000F01D00020E4E79DF80B100907090B35
:100C20009DF80C2041EA02219DF80D2041EA0200C6
:100C3000FFF779FD06460022094BFFF78AFC0446C0
:100C40000022084BFFF7F7FC80460022064BFFF717
:100C50007AFCCDE90001FFF7BDFD83465846C0E7A9
:100C60000000694000003041000049402DE9F0419A
:100C700007460D46164600F0D5FD702000F0B0FD89
:100C800000F000FE20B100F0E5FD0120BDE8F0819C
:100C9000384600F0A5FD00F0F5FD002406E0285DD3
:100CA00000F09EFD00F0EEFD601CC4B2B442F6DB25
:100CB00000F0D0FD0020E9E710B5002400F063FB50
:100CC0000421002000F069F8322002F045FA0321E7
:100CD000002000F062F8002000F042F80446032CE7
:100CE00001D1002010BD0120FCE72DE9FC410546A3
:100CF0000E461746002408E004F10A01C8B200F0CD
:100D00002FF80DF80400601CC4B2062CF4DB9DF82B
:100D1000000000F0800010B10020288006E09DF85F
:100D200001109DF8000061F39F0028809DF80200EB
:100D30009DF8031040EA012038809DF8040000F07F
:100D4000400010B10020308008E09DF8050000F060
:100D50003F019DF8040061F31F103080BDE8FC8165
:100D600070B5044600F082FB3C2000F05DFB00F013
:100D7000ADFB204600F058FB00F0A8FB00F076FB2E
:100D80003D2000F051FB00F0A1FB002000F022FB11
:100D9000054600F083FB284670BD70B505460C463D
:100DA00000F064FB3C2000F03FFB00F08FFB18B12B
:100DB00000F074FB012070BD284600F035FB00F008
:100DC00085FB204600F030FB00F080FB18B100F0FE
:100DD00065FB0120EFE700F061FB0020EBE710B5B9
:100DE00001220021282005F085FD01220021292073
:100DF00005F080FD00F0ACFB10BD000070B50446AE
:100E00000025002018490866642002F0BFF900F0B0
:100E100021FCB42000F0F0FB00F04EFC08B1FF20F4
:100E200070BD204600F0E8FB00F046FC08B1FF2052
:100E3000F6E7012002F090F900F00CFCB52000F07C
:100E4000DBFB00F039FC08B1FF20E9E7002000F0EF
:100E5000A7FB054600F018FC012003490866642042
:100E600002F094F92846DBE70040224270B50546BF
:100E70000C4600200D490866642002F087F900F056
:100E8000E9FBB42000F0B8FB00F016FC284600F0A7
:100E9000B3FB00F011FC204600F0AEFB00F00CFCB0
:100EA00000F0F2FB01200149086670BD00402242BB
:100EB00010B50020FFF7A2FF22490870084600780D
:100EC00010281FD0902804D0982806D099282DD11A
:100ED00021E0102004F0BCFF31E002F07DFA0A208E
:100EE00002F03AF91848008842F21071884205DA97
:100EF00015484288018815A001F090FB642002F09B
:100F00002BF91CE001F04AFE16A001F087FB6420DB
:100F100002F022F900BFE020FFF770FF09490870D6
:100F20000846017818A001F079FB00BF04F05CFFCF
:100F300019A001F073FB642002F00EF900BF00BF9E
:100F400010BD00000100002004190020636F322052
:100F50003D2025642074766F63203D2025640D0AB2
:100F600000000000434353383131205472696573E7
:100F700020746F20656E74657220417070204D6F13
:100F80006465210D0A0000004552524F52203D2059
:100F900025640D0A000000004343533831312054CA
:100FA0007269657320746F2072657365740D0A0031
:100FB00010B5002002F056F910BD10B5012002F066
:100FC00051F910BD10B5022002F04CF910BD10B55A
:100FD000032002F047F910BD10B5042002F042F9D9
:100FE00010BD000010B50024012211460B2005F0B1
:100FF00081FC04E0601CC4B2012002F0C7F80D4877
:10100000C06A08B1C82CF5DBC82C01DB012010BD7B
:10101000002404E0601CC4B2012002F0B7F80548C7
:10102000C06A08B9F02CF5DBF02C01DB0120EEE7FB
:101030000020ECE7008021422DE9F84F00F090F805
:1010400000F078F8FFF7CEFFCC2000F095F8BE2036
:1010500000F092F800F05CF8834600F059F8814601
:10106000B9F1070F0ADD6FEA090000F0FF096FEA26
:101070000B0000F0FF0B4FF0000A01E04FF0010AF7
:101080004C46200204B204EB0B0004B22046FFF7EA
:1010900041FB0090FFF78BFB07460022094BFFF74F
:1010A00058FA0546FFF764FB04B2BAF1000F05D009
:1010B000B4F5487F02DA2046BDE8F88F604200B2FE
:1010C000FAE700000000E43F10B5012200210B20E8
:1010D00005F010FC00200D49C862022002F056F80D
:1010E00001200A49C862012211460B2005F002FCCA
:1010F0000C2002F04BF80548C06A08B1012400E05A
:101100000024322002F042F8204610BD0080214227
:1011100070B50026012508E0FFF7D6FF0446E00180
:1011200040EA6600C6B2681CC5B2082DF4DD304640
:1011300070BD000010B5012200210B2005F0DAFB84
:1011400000200649C86240F2EE2002F01FF801209C
:101150000249C8620F2002F019F810BD0080214238
:1011600010B5FFF7E7FFFFF73DFFCC2000F004F8D4
:10117000442000F001F810BD70B5044601220021A2
:101180000B2005F0B7FB01251EE004F001066410FA
:1011900066B100200E49C862022001F0F7FF01206D
:1011A0000B49C8623C2001F0F1FF0BE00020084928
:1011B000C8623C2001F0EAFF01200549C862022014
:1011C00001F0E4FF681CC5B2082DDEDD70BD000033
:1011D0000080214238B504460D46044878231A465B
:1011E00029460090204600F0F9FE38BD2488030807
:1011F00038B504460D46044810230A2229460090BB
:10120000204600F0EBFE38BDBC12040838B5044699
:101210000D46044810230A2229460090204600F07B
:10122000DDFE38BD7411040838B504460D46044887
:1012300010230A2229460090204600F0CFFE38BD38
:101240002C10040838B504460D46044828231A46D5
:1012500029460090204600F0C1FE38BDACF80308D6
:1012600038B504460D460448232328222946009019
:10127000204600F0B3FE38BD3405040870B50024E4
:10128000002500260F4805F0ECFB064600BF07E0EE
:101290000120A040304008B1012503E0601CC4B229
:1012A0000F2CF5DD00BF5DB1074850F8340038B1B0
:1012B000054A02EBC4025068034A52F834108847CA
:1012C00070BD0000340C01405011002070B50024A6
:1012D00000250026104805F0C4FB064610240AE04D
:1012E000A4F11000012101FA00F0304008B10125FD
:1012F00003E0601CC4B22F2CF2DD00BF5DB10748D3
:1013000050F8340038B1054A02EBC4025068034A71
:1013100052F83410884770BD34120140501100203B
:1013200010B50749012001F089F84FF4165005F077
:1013300031FE18210348FEF792FF03F0C3FF10BDF2
:10134000332401087219002010B500200A49886072
:1013500001220021104605F0CDFA00200649486020
:1013600000F00CF801200449886000F007F8002024
:101370000149886010BD00000080214210B50320A3
:1013800001F004FF10BD10B501220021104605F048
:10139000B1FA01220021022005F0ACFA10BD0000D4
:1013A00010B500200A49886001220021104605F08E
:1013B000A1FA012006494860FFF7E0FF0120044937
:1013C0008860FFF7DBFF00200149886010BD000046
:1013D0000080214270B505460024012211461046C6
:1013E00005F088FA002612E000200E498860FFF719
:1013F000C5FF01200B4988606006040E084640685E
:1014000008B1601CC4B2FFF7B9FF701CC6B2082E49
:10141000EADB15B9FFF7C4FF01E0FFF795FF2046AF
:1014200070BD00000080214270B5044601220021F9
:10143000104605F05FFA00200B49886000250FE098
:10144000E009094948606006040E01208860FFF742
:1014500095FF002004498860FFF790FF681CC5B223
:10146000082DEDDB70BD00000080214210B5012287
:101470000021104605F03EFA0120074948608860C7
:10148000FFF77CFF002004494860FFF777FF00204A
:101490000149886010BD00000080214210B5012282
:1014A0000021104605F026FA002007494860012077
:1014B0008860FFF763FF012003494860FFF75EFF84
:1014C00000200149886010BD0080214210B5002431
:1014D00001221146104605F00DFA01200D49486021
:1014E000FFF74CFF01200B498860FFF747FF08E03A
:1014F000601C84B2B4F5FA6F03DDFFF7CFFF012063
:1015000010BD044840680028F2D10249886000BF3D
:10151000F6E700000080214210B500200B49486426
:1015200001220021222005F0E5F900200749886406
:10153000322001F02BFE012004494864322001F0E2
:1015400025FE00200149486410BD000000402242F1
:1015500010B501220021212005F0CCF90122002143
:10156000222005F0C7F910BD10B500200B494864D2
:1015700001220021222005F0BDF9012007498864DD
:10158000322001F003FE012004494864322001F0BA
:10159000FDFD00200149486410BD000000402242CA
:1015A00070B50546002401221146222005F0A2F95B
:1015B000002614E000200F494864322001F0E6FDC7
:1015C00001200C4948646006040E0846806C08B18E
:1015D000601CC4B2322001F0D9FD701CC6B2082EC6
:1015E000E8DB15B9FFF7C0FF01E0FFF795FF2046E4
:1015F00070BD00000040224270B504460122002167
:10160000222005F077F900201149486400251BE0ED
:10161000E00918B101200E49886402E000200C495D
:1016200088646006040E322001F0B0FD01200849F4
:101630004864322001F0AAFD0020054948643220A8
:1016400001F0A4FD681CC5B2082DE1DB70BD0000EF
:101650000040224210B501220021222005F04AF963
:101660000120084988644864322001F08FFD002081
:1016700004498864322001F089FD00200149486452
:10168000012010BD0040224210B50122002122207D
:1016900005F030F90020074948648864322001F0E1
:1016A00075FD0120034948648864322001F06EFD15
:1016B00010BD00000040224210B500240122114656
:1016C000222005F017F901200C49886401F05EFD25
:1016D00001200A49486401F059FD07E0601CC4B2CA
:1016E000FA2C03DDFFF7D0FF012010BD0348806C0A
:1016F0000028F3D10149486400BFF6E700402242C8
:1017000010B500200A49086001220021104605F0AA
:10171000F1F800200649486000F00CF80120044967
:10172000086000F007F800200149086010BD0000C3
:101730000080214210B54FF4FA7001F027FD10BD72
:1017400010B501220021084605F0D4F8012200213D
:10175000104605F0CFF810BD10B500200A4908600A
:1017600001220021104605F0C5F801200649486015
:10177000FFF7E0FF012004490860FFF7DBFF0020CE
:101780000149086010BD00000080214270B5054687
:10179000002401221146104605F0ACF8002612E0A4
:1017A00000200E490860FFF7C5FF01200B490860C3
:1017B0006006040E0846406808B1601CC4B2FFF71A
:1017C000B9FF701CC6B2082EEADB15B9FFF7C4FFDB
:1017D00001E0FFF795FF204670BD00000080214228
:1017E00070B5044601220021104605F083F8002060
:1017F0000B49086000250FE0E009094948606006D0
:10180000040E01200860FFF795FF002004490860DE
:10181000FFF790FF681CC5B2082DEDDB70BD00001E
:101820000080214210B501220021104605F062F827
:101830000120074948600860FFF77CFF0020044949
:101840004860FFF777FF00200149086010BD0000E5
:101850000080214210B501220021104605F04AF80F
:1018600000200749486001200860FFF763FF01205E
:1018700003494860FFF75EFF00200149086010BD82
:101880000080214210B5002401221146104605F0C7
:1018900031F801200D494860FFF74CFF01200B494A
:1018A0000860FFF747FF08E0601C84B2B4F5FA6FE8
:1018B00003DDFFF7CFFF012010BD0448406800287A
:1018C000F2D10249086000BFF6E700000080214223
:1018D00010B500220121062005F00CF8002201219C
:1018E000072005F007F802220121082005F002F880
:1018F00010BD000010B50446012C01D11A49087032
:1019000019480078F8B11948C06930B117488069A2
:1019100018B11648006A012815D10A2001F01CFCF4
:101920000020114908701148C06908B9012010BD94
:101930000E48806908B90220F9E70C48006A0128BE
:101940000FD10320F3E70948C069012809D10748EE
:101950008069012805D10548006A10B901200249B3
:1019600008700020E3E700006400002000802142AE
:101970002DE9F04104460D4616461F462A2000F088
:1019800055FB201200F05EFBE0B200F05BFB301272
:1019900000F058FBF0B200F055FB2B2000F046FBA6
:1019A000281200F04FFBE8B200F04CFB381200F0B8
:1019B00049FBF8B200F046FB2C2000F037FBBDE8F5
:1019C000F0810000F8B505460020009028128DF83F
:1019D0000000E8B28DF80100EF231A460021084606
:1019E000FFF7C6FF00240DE09DF800000E4901F846
:1019F00014009DF80100012101EB44010A4A5054F2
:101A0000601C84B2B4F5107FEEDB01200749C8608A
:101A1000002606E04FF49061034800F051F9701C75
:101A200086B2642EF6DBF8BDBC13002000402242D3
:101A30002DE9F05F0746884691469A46DDF828B0C2
:101A4000002400250026A9EB0700401CAAEB080192
:101A5000491C48434500B5F5906F03D9A5F590663C
:101A60004FF4906553464A4641463846FFF780FF9B
:101A700020E000240AE04FEA2B20104A02F814006C
:101A80006000401C02F800B0601C84B2B4EB550F3B
:101A9000F1D301200A49C8602946084800F010F92E
:101AA00006B908E0B6F5906F02D9A6F5906601E098
:101AB00035460026DDE700BFBDE8F09FBC130020DF
:101AC0000040224210B502220021182004F012FF2B
:101AD00002220021152004F00DFF02220021132014
:101AE00004F008FF02220021102004F003FF01206F
:101AF00005490860002008624861782001F02CFB4D
:101B000001200149486110BD0040224210B5FFF795
:101B1000D9FF782001F020FB112000F087FA78200F
:101B200001F01AFB362000F081FA002000F08AFA5A
:101B30003A2000F07BFA652000F084FAB22000F031
:101B400075FA0C2000F07EFA0C2000F07BFA0020E1
:101B500000F078FA332000F075FA332000F072FAC2
:101B6000B72000F063FA722000F06CFABB2000F09E
:101B70005DFA3D2000F066FAC02000F057FA2C20F4
:101B800000F060FAC22000F051FA012000F05AFA89
:101B9000C32000F04BFA192000F054FAC42000F0E2
:101BA00045FA202000F04EFAC62000F03FFA0F2040
:101BB00000F048FAD02000F039FAA42000F042FAF0
:101BC000A12000F03FFAE02000F030FAD02000F031
:101BD00039FA042000F036FA0D2000F033FA112013
:101BE00000F030FA132000F02DFA2B2000F02AFA32
:101BF0003F2000F027FA542000F024FA4C2000F097
:101C000021FA182000F01EFA0D2000F01BFA0B201C
:101C100000F018FA1F2000F015FA232000F012FA45
:101C2000E12000F003FAD02000F00CFA042000F0CC
:101C300009FA0C2000F006FA112000F003FA132034
:101C400000F000FA2C2000F0FDF93F2000F0FAF936
:101C5000442000F0F7F9512000F0F4F92F2000F0B3
:101C6000F1F91F2000F0EEF91F2000F0EBF9202021
:101C700000F0E8F9232000F0E5F9212000F0D6F982
:101C8000292000F0D3F9EF231A4600210846FFF778
:101C90006FFE4FF6FF70FFF795FE012001490862C5
:101CA00010BD00000040224210B50246012000E0B5
:101CB00050430B1EA1F10104E1B2F9D110BD0000A7
:101CC00070B504460D4600200449086029462046A8
:101CD00000F046FB01200149086070BD004022422F
:101CE0002DE9FE4F82468B4616461C46A6F1200083
:101CF000C6B204EBD4714910C1F1F001514503DBC8
:101D0000C4F1F001594501DABDE8FE8F04EBD4704F
:101D10000AEB6000401E82B20BEB0400401E83B24F
:101D2000594650460094FFF723FE102C01D0202C7A
:101D30004ED12046E31704EB5373DB1021464FEAE4
:101D4000E47C04EB5C7C4FEAEC0CA4EBCC0CBCF127
:101D5000000F02D04FF0010C01E04FF0000C634483
:101D6000224604EBD27C4FEA6C0C03FB0CF303F02D
:101D7000FF09002529E0102C04D1574800EB06107C
:101D8000475D07E0202C04D1544800EBC610475DA6
:101D900000E0B9E74FF0000812E007F0800018B14A
:101DA0004F480088029002E04E4800880290029856
:101DB00000F054F97806070E08F1010000F0FF0862
:101DC000B8F1080FE9DB681CC5B24D45D3DB80E0F4
:101DD0000C2C45D12046E31704EB5373DB1021464E
:101DE0004FEAE47C04EB5C7C4FEAEC0CA4EBCC0CFB
:101DF000BCF1000F02D04FF0010C01E04FF0000CDD
:101E00006344224604EBD27C4FEA6C0C03FB0CF3D8
:101E100003F0FF09002520E006EB4600324901EB04
:101E20008000475D4FF0000812E007F0800018B115
:101E30002B480088029002E02A480088029002980D
:101E400000F00CF97806070E08F1010000F0FF0819
:101E5000B8F1060FE9DB681CC5B24D45DCDB38E0A4
:101E6000182C36D12001C11700EB5171C1F3C709FD
:101E700000252CE006EB46001C4901EB0010475DF5
:101E8000284605EBD0714910A5EB410111B9082096
:101E9000019001E0042001904FF0000812E007F0EB
:101EA000800018B10E480088029002E00D480088BA
:101EB0000290029800F0D2F87806070E08F10100AF
:101EC00000F0FF0801988045E9DB681CC5B24D456C
:101ED000D0DB00BF18E700001C7B0108DC92010882
:101EE0006600002068000020A87601080C81010827
:101EF0002DE9FF5F074691461E460E9D4FF0000AF2
:101F0000002435E0301B401EC1B20A20FFF7CCFE92
:101F1000B9FBF0F00A21B0FBF1F201FB1208BAF1B3
:101F2000000F14D1701EA04211DDB8F1000F0CD1CA
:101F3000AB4605EBDB71491001FB047188B22B46FF
:101F400020220199FFF7CCFE10E04FF0010AAB46CA
:101F500005EBDB71491001FB047188B208F1300117
:101F6000CAB22B460199FFF7BBFE00BF601CC4B28A
:101F7000B442C7DBBDE8FF9F2DE9F04704460D469C
:101F800090469946DDE9086704F0FF0A08EB040073
:101F90001FFA80F809EB05001FFA80F914E04445A8
:101FA00002DB5446A81985B24D4500DB12E03A78B1
:101FB000334629462046FFF793FE304606EBD071A4
:101FC00004EB61018CB27F1C38787E2802DC387803
:101FD0002028E4DA00BFBDE8F08700002DE9F041D9
:101FE00006460F4614461D46DDF818803019F028C5
:101FF00002DC7819F02801DDBDE8F0817819401E77
:1020000083B23019401E82B239463046FFF7B0FC29
:1020100001200549C86004FB05F041004046FFF778
:102020004FFE00BFE8E700000040224201B500205B
:102030000349C86001216846FFF742FE08BD000061
:102040000040224201B501200349C86001216846D1
:10205000FFF736FE08BD00000040224238B50446B6
:102060000020009020128DF80000E0B28DF80100F1
:1020700001200349C86002216846FFF721FE38BDF0
:102080000040224210B5012200210D2004F032FC54
:10209000012200210E2004F02DFC012200210F203E
:1020A00004F028FC0120024948638863C86310BD1E
:1020B0000080214210B5022200211A2004F01AFCEF
:1020C000022200211C2004F015FC002001490863B5
:1020D000886210BD0040224238B505460C46E8B281
:1020E0008DF8000001208DF8010000208DF802001D
:1020F0008DF80340684600F001F838BD70B5002146
:1021000000230F22C47804B3154C246804F4E0645F
:10211000C4F5E064210AC1F10403CA40447804FA1A
:1021200003F184781440214309010E4C0678A1552F
:10213000047804F01F050124AC4005786D11AD0052
:1021400005F1E025C5F8004109E0047804F01F0519
:102150000124AC40044D0678761145F8264070BD48
:102160000CED00E000E400E080E100E00249014302
:10217000024A1160704700000000FA050CED00E013
:1021800029B1064A12680243044B1A6004E0034A6C
:1021900012688243014B1A607047000010ED00E0A6
:1021A00010B50B4804F066FC00F0040078B1084854
:1021B00004F060FC40F004042146054804F075FC7E
:1021C0000448006818B1034A50681168884710BD78
:1021D000140600403800002010B5094804F056FCF1
:1021E00000F0200050B12021054804F068FC0548AB
:1021F000006818B1034A50681168884710BD000094
:10220000140600405C00002010B50B4804F032FCBE
:1022100000F0080078B1084804F02CFC40F00804F5
:102220002146054804F041FC0448006818B1034AFF
:1022300050681168884710BD140600404000002017
:1022400010B5114804F016FC00F00100D0B10E48A2
:1022500004F010FC40F0010421460B4804F025FC7A
:102260000948103804F006FC20F480342146064862
:10227000103804F01AFC0548006818B1034A506889
:102280001168884710BD000014060040300000208F
:1022900010B50B4804F0EEFB00F0020078B10848DE
:1022A00004F0E8FB40F002042146054804F0FDFB81
:1022B0000448006818B1034A50681168884710BD87
:1022C000140600402800002010B50348006810B133
:1022D00001480068804710BD4C00002010B52B203D
:1022E00005F0A4F8122005F0EEF8112005F0C0F872
:1022F00004F0ECFB022004F0EBFC034A0021032075
:1023000004F07CFC10BD0000002D31012DE9F041EE
:1023100000BF124804F0B4FB054600BF2C4625461A
:102320000E4804F0ADFB0646E8B28643E8B2064329
:1023300031460A4804F0BFFB00BF00BF0748001F3A
:1023400004F09EFB0546E8B20746BC4304F040009B
:1023500008B103F065FEBDE8F081000014040140FF
:102360002DE9F04106460C460025A046B4F5FF5F76
:1023700014D94FF4FF50B4FBF0F7B4FBF0F100FBBD
:10238000114806E070194FF4FF5104F0BFFC05F549
:10239000FF55C7EB0720B5EB401FF3D3701941463B
:1023A00004F0B4FCC0B2BDE8F081042808D14FF0BD
:1023B000E021096941F004014FF0E022116107E0DA
:1023C0004FF0E021096921F004014FF0E022116192
:1023D000704710B5002004F023FD05F019F84FF404
:1023E0004070FFF7C3FE01210420FFF7C9FE002063
:1023F00004F01EFB10BD10B5002004F007F910BD5D
:1024000010B5012004F002F910BD10B5022004F04F
:10241000FDF810BD10B5032004F0F8F810BD10B59C
:10242000042004F0F3F810BD10B5052004F0EEF818
:1024300010BD10B5044602F0F5FA10BD30B585B0F8
:1024400004460D4614216846FDF709FF01208DF86A
:10245000000001948DF808000395684604F004FD1F
:102460000749087008460078FF2807D0084600781A
:1024700004F06CFD0248007805B030BDFF20FBE79A
:102480006B00002010B5264804F0E8FA00F00400C4
:10249000002839D02248183004F0E0FAC4B22148AC
:1024A000008800F4004058BB1E48008800F48040BB
:1024B00060B10A2C03D000201A49088020E0194896
:1024C000008840F400401749088019E00D2C06D11F
:1024D0001448008840F480401249088010E01148F8
:1024E0000088C0F30D0010490C540E480088401CB1
:1024F0000C49088008460088C72801DD00200880B4
:102500000421074804F0CBFA054804F0A7FA00F0CC
:10251000080018B10821024804F0C1FA10BD0000FB
:1025200018080140240000208800002070470000A7
:1025300008B52B4804F0ADFA00F00400002844D0A0
:102540002748183004F0A5FAC0B20090012168466F
:1025500002F022F92348008800F4004088BB21489B
:10256000008800F4804070B19DF800000A2803D074
:1025700000201C49088024E01A48008840F40040EC
:10258000184908801DE09DF800000D2806D1154867
:10259000008840F480401349088012E09DF8000054
:1025A00010490988C1F30D010F4A50540D480088A5
:1025B000401C0C49088008460088C72801DD00201F
:1025C00008800421064804F07CFA054804F061FA0A
:1025D00000F0080018B10821014804F072FA08BDA3
:1025E000181C01406C0000203C18002010B5054864
:1025F000007810B104A000F011F800200149087023
:1026000010BD00006A000020BFB4C3C5B9B7B5DA79
:10261000D2BBB4CED6D0B6CF0D0A00000FB4054B56
:1026200010B503A9044A029800F02CF810BC5DF81C
:1026300014FB0000B1330108200000200FB4084B48
:1026400010B504A902AA039800F01CF8044602A9D8
:10265000002000F048FA204610BC5DF814FB000092
:10266000E72A010802E008C8121F08C1002AFAD1AF
:1026700070477047002001E001C1121F002AFBD102
:10268000704700002DE9FF4F8DB00F46054600262C
:1026900006E025280BD0DDE90F1290476D1C761C53
:1026A00028780028F5D111B03046BDE8F08F00241D
:1026B000A246A1460122EC4900E0044315F8013F7F
:1026C000203B02FA03F00842F7D128782A2810D0DC
:1026D0006FF02F022878A0F13001092914D80AEBF5
:1026E0008A0102EB410144F0020400EB010A6D1C77
:1026F000F0E701CF5FEA000A03D544F40054CAF1C1
:10270000000A44F002046D1C28782E2817D115F811
:10271000010F44F004042A280ED06FF02F0228780D
:10272000A0F1300109290AD809EB890102EB410126
:1027300000EB01096D1CF2E757F8049B6D1C28782B
:102740006C280FD006DC4C2817D068280DD06A28DA
:1027500014D104E0742810D07A280FD10DE044F48D
:1027600000140AE044F4801401E044F44014697851
:10277000814202D104F580146D1C6D1C2A786E2AEA
:102780001FD00CDC632A31D004DC002A8BD0582AFD
:1027900011D1A3E0642A68D0692A0CD165E0732ABC
:1027A0002ED004DC6F2A73D0702A04D19BE0752AE6
:1027B0006FD0782A6ED01046DDE90F129047761C54
:1027C00050E1C4F30250022806D0032809D004289F
:1027D00001CF09D0066045E101CFF117C0E90061E2
:1027E00040E101CF06803DE106703BE117F8040BA4
:1027F0008DF8000000208DF80100EB46012003E079
:1028000057F804BB4FF0FF3061074FF0000102D4CE
:102810000DE008F10101884649450FDA8045F8DBF3
:102820001BF808100029F4D108E008F101018846DE
:102830008142FADB1BF808100029F6D1DDE90F23ED
:10284000AAEB08008146214600F036F9304400EB3F
:10285000080604E0DDE90F121BF8010B9047B8F100
:102860000108F7D221464846F7E00A21C4F3025393
:102870004FF0000B0891022B04D001CFC117032B9E
:1028800009D00AE0FF1D27F00707F7E8020108E07A
:1028900032E01FE020E000B2C117042B01D140B2AA
:1028A000C117031E71F1000307DA4FF0000CD0EBE3
:1028B0000C006CEB01012D2302E0230504D52B2332
:1028C0008DF82430012303E0E30701D02023F7E74C
:1028D000984658E00A2110E010210EE010204FF039
:1028E000000B08900CE010214FF0000B44F00404A2
:1028F0004FF00809089103E008214FF0000B089100
:10290000C4F30253022B04D001CF0021032B06D0C5
:1029100006E0FF1D27F00707F7E8020103E080B299
:10292000042B00D1C0B24FF0000823072BD5702A2A
:1029300007D0DDF820C08CF0100C5CEA0B0C05D041
:102940000EE040238DF82430012308E050EA010313
:1029500006D030238DF824308DF8252002239846A8
:10296000DDF820C08CF0080C5CEA0B0C0BD150EAAF
:10297000010301D1630706D530238DF824304FF0D1
:102980000108A9F10109582A04D038A20B9208AA1B
:102990000A920BE03AA2F9E75B46089AFDF74AFF74
:1029A0000B9B9B5C0A9A521E0A92137050EA01021A
:1029B000F2D10A98ADEB000000F1200B600702D5C0
:1029C00024F4803401E04FF00109D94502DDA9EB80
:1029D0000B0000E0002000EB0B0141440890AAEB43
:1029E000010AE00306D4DDE90F232146504600F03A
:1029F00063F806444FF0000908E009A911F809003E
:102A0000DDE90F12904709F10109761CC145F4DB9D
:102A1000E0030CD5DDE90F232146504600F04CF8C9
:102A2000064404E0DDE90F1230209047761C089937
:102A3000481E08900029F5DC08E00A980A990078F9
:102A4000491C0A91DDE90F129047761CBBF1000189
:102A5000ABF1010BF1DC21465046DDE90F2300F01C
:102A600019F806446D1C1BE6092801003031323389
:102A700034353637383961626364656600000000BA
:102A800030313233343536373839414243444546A4
:102A9000000000002DE9F041044600251E461746BF
:102AA000880404D405E039462020B0476D1C641E1C
:102AB000F9D52846BDE8F0812DE9F041044600250E
:102AC0001E469046C80301D5302700E02027880421
:102AD00004D505E041463846B0476D1C641EF9D563
:102AE0002846BDE8F0810A68531C0B6010707047DF
:102AF0002DE9F041044600272748006810B9381F27
:102B0000BDE8F08124B104F1080000F09FFB10B192
:102B10004FF0FF30F4E7A068064606E0306910B9D0
:102B20004FF0FF30ECE73068064604F108008642BB
:102B3000F4D119480068083000F088FB00B1012783
:102B40000020A061214614480068083000F06AFBAC
:102B5000012F1FD110480068006908B1381FCFE766
:102B600003F046FC0C49096808610B480068856958
:102B700015B94FF0FF30C3E7074928690968C861F4
:102B800005480068C169284603F0DEFA80464046E1
:102B900003F0CEFC0020B3E75000002010B5002069
:102BA00011490866642000F0F1FAFEF753FDB420E5
:102BB000FEF722FDFEF780FD10B1FEF765FD10BDAA
:102BC000F420FEF719FDFA2000F0E0FAFEF774FD9C
:102BD00010B1FEF759FDF2E7FEF756FD012002495C
:102BE000086600BFEBE70000004022422DE9FC41EF
:102BF00080460E4614461D46089FF7494046FDF79D
:102C00000FFE2CD2F5494046FDF700FE27D2172CC7
:102C100025DD202C23DA0020F14908700920F14934
:102C20000870F1A010210B467822CDE90010002198
:102C30001046FFF7A1F9ECA010210B467822CDE950
:102C4000001014211046FFF797F9EBA010210B4656
:102C50006422CDE9001011468C20FFF78DF9DF4981
:102C60004046FDF7DDFD01D9202C33DBDB49404632
:102C7000FDF7D6FD09D8E4A010210B467822CDE956
:102C8000001000211046FFF777F9232C09DBE2A0A2
:102C900010210B467822CDE9001014211046FFF7D1
:102CA0006BF90120E049C863642000F055FA002068
:102CB000DD49C8630120CA4908700A20C949087063
:102CC000DAA010210B466422CDE9001011468C20B9
:102CD000FFF752F9C0494046FDF798FD01D9172C7E
:102CE00033DCBD494046FDF791FD09D8D3A0102142
:102CF0000B467822CDE9001000211046FFF73CF981
:102D0000172C09DCD1A010210B467822CDE9001048
:102D100014211046FFF730F90120C349C86364202D
:102D200000F01AFA0020C049C8630120AC490870BD
:102D30000A20AC490870BDA010210B466422CDE9E1
:102D4000001011468C20FFF717F9C4493046FDF7F3
:102D500067FD19D20020A24908700C20C0490870F4
:102D6000A1A010210B467822CDE9001028211046A1
:102D7000FFF702F9BBA010210B466422CDE9001039
:102D800078218C20FFF7F8F8B4493046FDF73EFD76
:102D900022D8B8A010210B467822CDE900102821B6
:102DA0001046FFF7E9F801209F49C863642000F04E
:102DB000D3F900209C49C8630220894908700B2080
:102DC000A7490870AFA010210B466422CDE900107E
:102DD00078218C20FFF7D0F8142D23DDB5F5FA6F9C
:102DE00020DA00207E490870AAA010210B46642238
:102DF000CDE900108C210846FFF7BEF8A9A01021EC
:102E00000B466422CDE90010A0218C20FFF7B4F816
:102E100075A010210B467822CDE900103C21104608
:102E2000FFF7AAF8142D02DDB5F5FA6F7EDB142D3D
:102E300043DCA0A010210B467822CDE900103C21F4
:102E40001046FFF799F801207749C863642000F025
:102E500083F900207449C8639A4948638863C8634A
:102E600003205F4908709848007805280ED100209B
:102E70006D498862012008634FF4487000F06CF9D6
:102E800000206949086306208F49087008208F498F
:102E900008708FA010210B466422CDE900108C2110
:102EA0000846FFF769F88EA010210B466422CDE991
:102EB0000010A0218C20FFF75FF8B5F5FA6F46DB14
:102EC0008BA010210B467822CDE900103C21104642
:102ED000FFF752F801205449C863642000F03CF920
:102EE00000205149C8630120764948638863C8635C
:102EF00003203B4908707448007806280ED1002052
:102F000049490863012088624FF4487000F024F9B1
:102F100000204549886205206B49087007206B49ED
:102F200008705CA010210B46642200E00FE0CDE9A0
:102F300000108C210846FFF71FF85AA010210B46FD
:102F40006422CDE90010A0218C20FFF715F8B7F519
:102F50007A7F19DA0020224908700E20684908702B
:102F600021A010210B467822CDE9001050211046F7
:102F7000FFF702F863A010210B466422CDE9001090
:102F8000B4218C20FEF7F8FFB7F57A7F22DB61A031
:102F900010210B467822CDE9001050211046FEF793
:102FA000EBFF01202049C863642000F0D5F8002021
:102FB0001D49C86304200A4908700D205049087053
:102FC00058A010210B466422CDE90010B4218C20BA
:102FD000FEF7D2FFBDE8FC810000A04100000C42DA
:102FE0000700002004000020202020202020202096
:102FF00020202020202020004169724320434C4F94
:1030000053452020200000006169722074656D70B6
:10301000206F766572202000736F696C2074656D77
:1030200070206F7665722000004022424169724331
:10303000204F50454E202020200000006169722062
:1030400074656D70206C6F7720202000736F696C41
:103050002074656D70206C6F772020000000F041B7
:1030600005000020576174657220434C4F53452082
:10307000200000006169722068756D69206C6F77AF
:10308000200000005761746572204F50454E20208B
:103090002000000053756E20434C4F5345202020E4
:1030A000200000004C6967687420434C4F53452052
:1030B000200000004C69676874206C6F7720202026
:1030C0002020200000802142020000200300002078
:1030D00053756E204F50454E2020202020000000C8
:1030E0004C69676874204F50454E20202000000036
:1030F0004C69676874206F7665722020202020005C
:103100000600002046414E20434C4F5345202020CE
:1031100020000000434F32206F766572202020206F
:103120002020200046414E204F50454E2020202098
:103130002000000010B504460420FFF736F90448CB
:10314000047000784FF47A7148430249086010BD5A
:10315000180000201C00002070B50446642094FB79
:10316000F0F086B2642094FBF0F100FB114085B2D0
:1031700004E0642000F030F8701E86B2002EF8D112
:1031800015B1284600F028F870BD00000146114A2C
:1031900012784A434FF0E0235A6100229A611A469E
:1031A000126942F001021A6100BF4FF0E02210697B
:1031B00000F001021AB100F48032002AF5D04FF07D
:1031C000E022126922F001024FF0E0231A6100228E
:1031D0009A617047180000200146114A12684A435C
:1031E0004FF0E0235A6100229A611A46126942F0B8
:1031F00001021A6100BF4FF0E022106900F00102E5
:103200001AB100F48032002AF5D04FF0E0221269A2
:1032100022F001024FF0E0231A6100229A61704708
:103220001C0000200246506803680B604860036879
:103230005960016000BF7047D0E900215160D0E9BA
:10324000001211600021016041607047014608686A
:10325000884201D1012070470020FCE700604060F7
:103260007047000070B50646F4B2424803F00BFC0C
:103270000546032C0FDD042407E06100032088408D
:10328000284000B103E0601CC4B2082CF5DB00BF8D
:10329000082C00D170BD6100032088402840F8B19F
:1032A00004EB8400344911F82000032818D10321CD
:1032B000204603F04FFA04EB84002F4901EB800015
:1032C0004068002853D004EB84020B4603EB8202D3
:1032D000906804EB840203EB82025168884746E061
:1032E0006100012088402840F0B104EB84002249AD
:1032F00011F82000012817D10321204603F02AFAF3
:1033000004EB84001C4901EB8000406878B304EBB7
:1033100084020B4603EB8202906804EB840203EB09
:1033200082025168884722E06100022088402840DC
:10333000E8B104EB8400104911F82000022816D1EE
:103340000321204603F006FA04EB84000A4901EB4E
:103350008000C06858B104EB84020B4603EB820284
:10336000106904EB840203EB8202D168884700BF36
:1033700090E70000040400401C13002001B581B058
:1033800000200090694601AA5078087010784870B3
:10339000BDF800000CBD0146080601F47F4240EA7A
:1033A000022001F47F0240EA122040EA11607047D7
:1033B00070B504460D4600BF064803F04FFB00F011
:1033C0003F000028F8D1E1B20248001D03F067FB7E
:1033D000204670BD1C0801401CB50020224908662B
:1033E0006420FFF7D3FEFEF735F9B420FEF704F9A9
:1033F000FEF762F90220FEF7FFF8FEF75DF9FEF72F
:1034000043F96420FFF7C2FEFEF724F9B520FEF76A
:10341000F3F8FEF751F9002406E00120FEF7C0F8AA
:103420000DF80400601CC4B2072CF6DB0020FEF788
:10343000B7F80DF80400FEF727F901200A490866DD
:103440009DF801009DF8001000EB0120074908805D
:103450009DF803009DF8021000EB0120034948800D
:103460009DF8040008711CBD004022420419002090
:10347000024612B102F0070028B9082901D800203D
:1034800070470120FCE702F00700C0F10800884205
:1034900001D30020F4E70120F2E730B502460B46E5
:1034A0000021002400250AB9481E30BD002108E093
:1034B000545C581A401E155C5554581A401E14543A
:1034C000491CB1EB530FF3D30020EEE72DE9F04197
:1034D00004460D460027002604B135B933A0FFF796
:1034E0009DF84FF0FF30BDE8F08100F0D7F90646B7
:1034F00028682168884203D036A0FFF78FF801279B
:1035000061686868FDF782F90AD037480068301AA8
:1035100041F27071884203D334A0FFF77FF801278E
:10352000A168A868FDF772F90AD02F480068301A20
:1035300041F27071884203D331A0FFF76FF8012781
:10354000E868E16888420AD027480068301A41F2EA
:103550007071884203D32FA0FFF760F8012721691B
:103560002869FDF753F90AD01F480068301A41F264
:103570007071884203D32CA0FFF750F801276869C7
:10358000616988420AD018480068301A41F27071A7
:10359000884203D32AA0FFF741F80127012F03D166
:1035A00000F07CF91049086038469CE767697A4367
:1035B0006865636B5265706F7274204572726F72CA
:1035C000202C20496C6C6567616C20506172616DC4
:1035D0000A00000076616C75654354524C204368C4
:1035E000616E6765640A00007800002076616C7582
:1035F0006554454D50204368616E6765640A00005C
:1036000076616C756548554D49204368616E676504
:10361000640A000076616C7565414C532043686113
:103620006E6765640A00000076616C756554454DEF
:10363000505F53204368616E6765640A00000000B4
:1036400076616C7565434F32204368616E676564CF
:103650000A000000F8B505460C4616460DB104B147
:103660002EB90EA0FEF7DAFF4FF0FF30F8BD287834
:1036700000F0010078B111212278601C815420787B
:10368000401C207001206B1C022200210090084683
:1036900001F066F930600020E8E7000067697A44CD
:1036A000617461506F696E74324576656E74204541
:1036B00072726F72202C20496C6C6567616C2050AF
:1036C0006172616D0A000000F8B505460C4605B14F
:1036D0002CB929A0FEF7A2FF4FF0FF30F8BD002063
:1036E00020702868042805D32FA0FEF797FF4FF01D
:1036F000FF30F3E7286823460222002100900846A5
:1037000001F0EEF801212046FFF7C7FE6A68314953
:10371000314801F096F986B23046FFF72FFE24F8C3
:10372000010FAA6800212D4801F08BF986B23046BE
:10373000FFF724FE6080EA680021012001F07AF999
:1037400086B23046FFF71AFEA0802A692149224836
:1037500001F077F986B23046FFF710FEE0806A6923
:103760000021012001F066F986B23046FFF706FE1F
:103770002081641E0020B1E767697A44617461505A
:103780006F696E7473325265706F727444617461E4
:10379000204572726F72202C20496C6C6567616CD9
:1037A00020506172616D0A005B4552524F525D209C
:1037B00076616C75654354524C204572726F72206D
:1037C0002C20496C6C6567616C204F766572737450
:1037D00065700A000000A0C1CDCCCC3D6F12833AC9
:1037E00070B5054600F05AF804461D492846FFF713
:1037F0006DFE012813D11BA0FEF710FF18492339D5
:103800002846FFF761FF28B90B2215492339042008
:1038100000F0FCFF182229461148FCF707FD174865
:10382000B4FBF0F100FB1140C8B915480068A04294
:1038300015D014A0FEF7F2FE094923392846FFF7F8
:1038400043FF28B90B2206492339042000F0DEFF8C
:10385000182229460248FCF7E9FC0948046070BDBB
:103860006E1A00206368616E6765642C2072657053
:103870006F727420646174610A000000C02709003F
:103880007C000020496E666F3A203630305320723B
:1038900065706F727420646174610A000148006889
:1038A000704700007000002010B5174890F84E00D7
:1038B000012827D1144890F84D0002281DDAFFF79F
:1038C000EDFF1149D1F87110401AC8281AD9FFF735
:1038D000E5FF04460C4890F84D30D0F871202146A1
:1038E0000AA0FEF79BFE00F0AFFE074890F84D00DF
:1038F000401C054981F84D0004E0282102484D3064
:10390000FCF7ADFC10BD00008A1900205761726EF3
:10391000696E673A67697A50726F746F636F6C5241
:103920006573656E6444617461202564202564209C
:1039300025640A003EB50446002524B913A0FEF70D
:103940006DFE681E3EBD20680090606801909DF885
:103950000400401CC0B28DF804000520FFF70EFDE6
:10396000ADF802000921684600F0ACFE8DF80800B1
:103970000921684603F066FB0546002D03DA294657
:103980000DA0FEF74BFE2846DCE700004552523AF8
:103990002067697A50726F746F636F6C436F6D6DDF
:1039A0006F6E41636B206461746120697320656D83
:1039B000707479200A0000004552523A20756172F5
:1039C00074207772697465206572726F7220256445
:1039D000200A0000FEB504460E46002524B914A0B6
:1039E000FEF71CFE681EFEBD684600F0D7F91220E7
:1039F0008DF8040060798DF805000620FFF7BEFC05
:103A0000ADF802008DF808600A21684600F05AFE01
:103A10008DF809000A21684603F014FB0546002DC5
:103A200003DA29460DA0FEF7F9FD2846DBE7000082
:103A300067697A50726F746F636F6C4572726F72E0
:103A4000436D64204572726F72202C20496C6C6546
:103A500067616C20506172616D0A00004552523AF4
:103A60002075617274207772697465206572726F57
:103A700072202564200A000030B59DB00446002560
:103A80002CB92BA0FEF7CAFD681E1DB030BD6846DC
:103A900000F084F902208DF8040060798DF80500AB
:103AA0002FA103C9CDE9020130A103C9CDE9040169
:103AB00031A103C9CDE9080132A103C9CDE906014D
:103AC000202233A10AA8FCF7B1FB202239A10DF175
:103AD0005200FCF7ABFB0020CDF84A00CDF84E00B9
:103AE0009DF851008DF851009DF8510040F0020101
:103AF0008DF851100020FFF741FCADF848006F2011
:103B0000FFF73CFCADF802007321684600F0DAFDD7
:103B10008DF872007321684603F094FA0546002D73
:103B200003DA29462CA0FEF779FD2846ADE7000010
:103B300067697A50726F746F636F6C476574446520
:103B400076696365496E666F204572726F72202CCC
:103B500020496C6C6567616C20506172616D0A0070
:103B60003030303030303034000000003030303011
:103B700030303032000000003033303330303030FD
:103B800000000000303330313031303000000000B0
:103B90003735373737643562383735303464663215
:103BA00038313964326361643130323361313163C9
:103BB00000000000316137303437313061306566E4
:103BC0003432366562373635653130646464353099
:103BD00066353530000000004552523A207561725A
:103BE00074207772697465206572726F7220256423
:103BF000200A00002DE9FE4F80460E4617464FF082
:103C0000000B002002908146824600253446009039
:103C1000B8F1000F01D006B137B950A0FEF7FEFC95
:103C20004FF0FF30BDE8FE8F404602F001F800F093
:103C3000FF0ABAF1000F02D14FF0FF30F2E74FF068
:103C400000095DE0012201A9404602F02EF88346FA
:103C5000BBF1000F52D04D480078FF281FD19DF8CE
:103C60000400FF281BD14A48007848B9FF20207083
:103C7000607002204749088001204549087034E0FF
:103C800044480088042830DD42480088A8422CD0EF
:103C9000FF202070607002203E49088025E03B48EC
:103CA0000078FF2803D19DF8040055281DD038481E
:103CB0000078012819D19DF804003649098860541C
:103CC00034480088401C334908800846008804288E
:103CD0000BDD0094009C6088FFF750FB001D85B24F
:103CE0002C480088A84200D10CE09DF80400274928
:103CF000087029480078401C2749087009F101091B
:103D0000D1459FDB00BF23480088042823DD2148DC
:103D10000088A8421FD11F480188204600F0D2FC2D
:103D200002901C480088401E215C029881420FD1FD
:103D30002A4621463046FCF779FA3D800020144996
:103D4000087014490880144908701049087069E720
:103D50006FF0010066E7012064E7000067697A50B0
:103D6000726F746F636F6C4765744F6E65506163FB
:103D70006B6574204572726F72202C20496C6C65E3
:103D800067616C20506172616D0A00008400002040
:103D900080000020820000208500002010B504462D
:103DA0002CB907A0FEF73AFC4FF0FF3010BD002001
:103DB00020606060FF20207060700020F6E7000047
:103DC0004552523A2067697A50726F746F636F6C14
:103DD00048656164496E697420686561642069732F
:103DE00020656D707479200A000000002DE9F04F05
:103DF00091B006468B4617469946002010908246A1
:103E0000804600256C46BBF1000F06D130A0FEF7BE
:103E100005FC681E11B0BDE8F08FB9F1010F06D1A5
:103E200096F8088008F10600384485B201E0781D54
:103E300085B22B46424639462BA0FEF7EFFBFF200A
:103E400004F8010B04F8010B281204F8010B04F824
:103E5000015B3079401C04F8010B707904F8010B08
:103E6000002004F8010B04F8019B4FF0080AB9F197
:103E7000010F0CD104F8018B0AF1010A0DEB0A00C5
:103E8000424606F10901FCF7D1F9C24444442FB17E
:103E90000DEB0A003A465946FCF7C8F9291D684659
:103EA00000F010FC0146E81C0DF80010291D6846C2
:103EB00003F0C8F810901098002806DA14A01099A2
:103EC000FEF7ACFB6FF00100A4E70020A2E70000C2
:103ED0005B4552525D202064617461204973204E1D
:103EE000756C6C200A0000006C656E203D20256416
:103EF000202C20734469644C656E203D202564208D
:103F00002C646174615F6C656E203D2025640A003D
:103F100075617274207772697465206572726F7250
:103F2000202564200A0000002DE9F04780460C4659
:103F300017461D46089E94F800900CB105B136B99D
:103F400033A0FEF76BFB4FF0FF30BDE8F087B8F110
:103F5000000F5AD113213A48FCF781F9B9F1010F4A
:103F600006D0B9F1020F11D0B9F1050F4BD12AE0FB
:103F7000334A57323249601CFFF76CFB012030494D
:103F8000753908700025002030603DE02C494C3127
:103F900001F12300FFF798FB88B929484C300168EC
:103FA000C5F801104168C5F805100189A5F8091088
:103FB000807AE872032028700C20306002E04FF015
:103FC000FF30C2E720E07A1E611C1D485438FCF720
:103FD0002DF9781E1A497539C1F841001021184889
:103FE000753890F8752076308154763890F87500E1
:103FF000401C1349753981F87500032008700025AD
:104000000020306000E000BF00BF00209DE70000FE
:1040100067697A50726F746F636F6C4973737565FB
:104020006450726F63657373204572726F72202CD7
:1040300020496C6C6567616C20506172616D0A008B
:10404000FF19002070B5044625462CB90EA0FEF7D6
:10405000E5FA4FF0FF3070BD412205F108010E482E
:10406000FCF7E4F80F210D4890F8AE20AF308154F2
:10407000AF3890F8AE00401C084981F8AE0005202A
:1040800008700020E7E700004E5450206973206557
:104090006D707479200A0000931A00208A1900209C
:1040A00010B504462CB9CAA0FEF7B8FA4FF0FF309D
:1040B00010BD2089FFF762F92081D1480078C0F354
:1040C0008000217AC1F38001884256D0207AC0F363
:1040D0008000002829D0207A00F0010078B100216A
:1040E000C84890F8882089308154893890F8880031
:1040F000401CC44981F88800C3A0FEF78FFA207ADB
:10410000C0F34000002838D00121BE4890F8882034
:1041100089308154893890F88800401CB94981F869
:104120008800C1A0FEF77AFA27E0207A00F00100AB
:1041300078B10021B34890F88820893081548938BB
:1041400090F88800401CAF4981F88800AEA0FEF7C7
:1041500065FA207AC0F3400078B10221A94890F8AE
:10416000882089308154893890F88800401CA549FE
:1041700081F88800B3A0FEF751FAA1480078C0F397
:10418000C000217AC1F3C00188422CD0207AC10836
:104190009B48007861F3C30099490870207AC0F306
:1041A000C00080B10321974890F88820893081545D
:1041B000893890F88800401C924981F88800A8A0AE
:1041C000FEF72CFA0FE004218E4890F88820893001
:1041D0008154893890F88800401C8A4981F8880009
:1041E000A7A0FEF71BFA86480078C0F30010217ADA
:1041F000C1F3001188422CD0207A01098048007850
:1042000061F304107E490870207AC0F3001080B179
:1042100005217C4890F8882089308154893890F8AD
:104220008800401C774981F888009DA0FEF7F6F9C8
:104230000FE00621734890F888208930815489382E
:1042400090F88800401C6F4981F888009CA0FEF718
:10425000E5F96B480078C0F34010217AC1F34011B2
:1042600088422CD0207A41096548007861F34510D6
:1042700063490870207AC0F3401080B1072161487B
:1042800090F8882089308154893890F88800401C43
:104290005C4981F8880093A0FEF7C0F90FE008217F
:1042A000584890F8882089308154893890F88800DF
:1042B000401C544981F8880091A0FEF7AFF950489E
:1042C0004078C0F3C001607AC0F3C00081422CD0B6
:1042D000607AC1084A48407861F3C3004849487091
:1042E000607AC0F3C00080B10B21464890F8882066
:1042F00089308154893890F88800401C414981F800
:10430000880087A0FEF78AF90FE00C213D4890F85D
:10431000882089308154893890F88800401C3949B8
:1043200081F8880085A0FEF779F935484078C0F318
:104330000011607AC0F3001081422CD0607A01092C
:104340002F48407861F304102D494870607AC0F31B
:10435000001080B109212B4890F8882089308154C1
:10436000893890F88800401C264981F888007BA095
:10437000FEF754F90FE00A21224890F8882089308E
:104380008154893890F88800401C1E4981F88800C3
:1043900079A0FEF743F90D211A4890F8882089305A
:1043A0008154893890F88800401C164981F88800AB
:1043B000607A00F0070081F8FC00084690F8FC10D5
:1043C00074A0FEF72BF902200E49087000206FE65A
:1043D00067697A50726F746F636F6C4D6F64756C40
:1043E00065537461747573204572726F72202C204E
:1043F000496C6C6567616C20506172616D0A0000E8
:10440000860000208A1900204F6E426F6172646935
:104410006E673A20536F66744150206F7220576563
:1044200062206D6F64650A004F6E426F617264694D
:104430006E673A204169724C696E6B206D6F6465DE
:104440000A0000004F6E426F617264696E673A2025
:1044500053746174696F6E206D6F64650A000000AB
:1044600057694669207374617475733A20696E20C8
:1044700062696E64696E67206D6F64650A00000092
:1044800057694669207374617475733A206F757447
:104490002062696E64696E67206D6F64650A000052
:1044A00057694669207374617475733A20636F6E3F
:1044B0006E656374656420726F757465720A0000BE
:1044C00057694669207374617475733A206469731F
:1044D000636F6E6E656374656420726F7574657268
:1044E0000A00000057694669207374617475733A55
:1044F00020636F6E6E6563746564206D326D0A00B3
:1045000057694669207374617475733A20646973DE
:10451000636F6E6E6563746564206D326D0A0000B2
:1045200057694669207374617475733A20617070BD
:1045300020636F6E6E6563740A00000057694669F8
:10454000207374617475733A206E6F2061707020EF
:10455000636F6E6E6563740A0000000057694669F8
:10456000207374617475733A20696E207465737476
:10457000206D6F64650A0000576946692073746195
:104580007475733A206F75742074657374206D6F41
:1045900064650A0052535349206973202564200A38
:1045A0000000000070B5044625462CB919A0FEF79E
:1045B00035F84FF0FF3070BD1B48A9680160E9680D
:1045C0004160298A0181A97C8172A0F1FD01B1F8C5
:1045D000FD00FEF7D3FE1449FD39A1F8FD00D1F826
:1045E0000501FEF7D8FE1049FD39C1F805010E217D
:1045F0000D48FD3890F89B209C3081549C3890F8F1
:104600009B00401C0849FD3981F89B00042008707C
:104610000020D0E74552523A204E54502069732072
:10462000656D707479200A00871A002010B5FFF7B5
:1046300035F9044600BFFFF731F9001BB0F5167FCE
:10464000F9D901F0DBFA10BD10B500240E4890F83E
:104650004E0000B910BD0DA0FDF7E0FF0A48B0F80C
:104660006F104F3002F0EEFC04460748B0F86F00C0
:10467000A04202D00DA0FDF7D1FFFFF70FF90249CC
:10468000C1F8710000BFE5E78A1900205761726E1A
:10469000696E673A2074696D656F75742C20726558
:1046A00073656E642064617461200A004552523A59
:1046B00020726573656E6420646174612065727236
:1046C0006F720A0010B502460024002302B109B936
:1046D000002010BD022303E0D05C2044C4B25B1C68
:1046E000481E9842F8D82046F3E7000070B504460B
:1046F0000D462CB90FA0FDF791FF4FF0FF3070BDB4
:1047000028211248FBF7ABFD2A4621460F48801CA2
:10471000FBF78CFD0D484D38A0F86F50012180F853
:104720004E10FFF7BBF809494D39C1F87100002060
:10473000E5E700004552523A2064617461206973D4
:1047400020656D707479200A00000000D7190020E0
:1047500070B50446094D2CB909A0FDF75FFF4FF075
:10476000FF3070BD2879401C2179884204D128216E
:104770000248801EFBF773FD0020F2E7D9190020E4
:104780004552523A206461746120697320656D70EE
:104790007479200A0000000070B504460D4600261A
:1047A00024B90AA0FDF73AFF701E70BD2A462146C3
:1047B0000E4801F0CBFA0646AE4205D00CA0FDF73C
:1047C0002DFF4FF0FF30F0E73046EEE74552523A0A
:1047D0002067697A5075744461746120627566203F
:1047E000697320656D707479200A0000D41A002066
:1047F0004552523A204661696C656420746F20729C
:10480000625772697465200A00000000F0B587B035
:1048100005460E46174600242EB91FA0FDF7FEFEE2
:10482000601E07B0F0BD01A8FFF7B8FA05208DF8AB
:104830000800234890F84510D0F84500401C204A55
:10484000C2F84500C8B28DF809008DF80C5011204F
:10485000FEF794FDADF806003A4631460DF10D0025
:10486000FBF7E4FC152101A8FFF72CFF8DF81800D9
:10487000152101A802F0E6FB0446002C06DA2146C9
:1048800010A0FDF7CBFE6FF00100CAE7152101A8CB
:10489000FFF72CFF2046C4E767697A5265706F7294
:1048A0007444617461204572726F72202C20496CCF
:1048B0006C6567616C20506172616D0A00000000D8
:1048C0008A1900204552523A20756172742077721D
:1048D000697465206572726F72202564200A000079
:1048E0002DE9F04704460D461746089E4FF0000993
:1048F000CA46C8461BB94FF0FF30BDE8F0873946BD
:104900002846FEF7B5FD8046B8F1000F07D1185DC7
:1049100005F0070106FA01F1084318551EE0B8F149
:10492000010F1BD1F0B205F00701C1F1080140FAF7
:1049300001F905F00700C0F10801FF20084100EA75
:10494000060A601C185C40EA0900611C5854185D96
:1049500005F007010AFA01F1084318550020CCE7D9
:104960002DE9F04F8FB005460C4616469946189F24
:104970004FF0000AD34600200E908046B9F1000F98
:1049800000D027B94FF0FF300FB0BDE8F08F3A46A6
:10499000494601A8FBF74AFC012F09D9394601A86D
:1049A000FEF77BFDB0F1FF3F02D14FF0FF30EBE7A8
:1049B00031462046FEF75CFD8246BAF1000F0CD16D
:1049C00001A8405D04F007010841C6F10802FF217B
:1049D0001141084040EA080821E0BAF1010F1ED158
:1049E00001A9681C085C04F00701C1F10801711AF3
:1049F000C1F10802FF21114100EA010B01A8405D4D
:104A000004F0070108410E9004F00700C0F108010E
:104A10000BFA01F040EA08080E9848EA0008404600
:104A2000B2E7000002480068401C01490860704776
:104A30007000002010B503460020541AB4FBF3F0B8
:104A400010BD2DE9F04704460E46154600273146B5
:104A50002846FBF761FC81462146FBF795FC804622
:104A6000FBF772FE07463846BDE8F0872DE9FF5F89
:104A700006460D4693464FF000082F46A9462C46A1
:104A8000AA4606B125B94FF0FF3004B0BDE8F09F4B
:104A90004FF000089DE1701C10F8080012287DD22C
:104AA000DFE800F0FEFDFC7C7CFBFAF9F87C7C7C06
:104AB0007CF7F6F5F4093868C949086008460168CA
:104AC000C8A0FDF7ABFDC648006830B101283CD056
:104AD00002283ED003287DD185E0C748007807280A
:104AE00016D1C6480078401CC44908700820C24945
:104AF00008700020C24948638863C863C1A01021C0
:104B00000B466422CDE90010A0218C20FDF734FA79
:104B1000B9480078082814D1B848007888B9072027
:104B2000B54908700120B64948638863C863B9A0D5
:104B300010210B466422CDE90010A0218C20FDF746
:104B40001BFA0020AD490870FBE00020B549C8639E
:104B5000F7E0B548007805281DD1B4480078401C1E
:104B6000B24908700020AF498862012008634FF401
:104B70004870FEF7F1FA0020AA4908630620AA4906
:104B80000870ABA010210B466422CDE900108C21E7
:104B90000846FDF7F1F9A448007800E013E1062883
:104BA0001DD1A2480078D0B900209E490863012099
:104BB00088624FF44870FEF7CFFA00209949886266
:104BC0000520994908709EA010210B466422CDE96A
:104BD000001000E0B4E08C210846FDF7CDF900207C
:104BE00092490870ADE09A4800780F2811D1994891
:104BF0000078401C9749087010209549087096A0CD
:104C000010210B465022CDE90010E0210020FDF7D5
:104C1000B3F98F480078102879D18E4800780028A1
:104C2000FAD10F208A49087000207E49C86301200C
:104C3000734948638863C86300207A4988620863BF
:104C400088A010210B467822CDE9001000211046E3
:104C5000FDF792F983A010210B467822CDE90010D0
:104C600014211046FDF788F97EA010210B4678220A
:104C7000CDE9001028211046FDF77EF979A010211A
:104C80000B467822CDE900103C210AE06EE08EE070
:104C900070E065E060E05BE059E057E055E053E02C
:104CA00051E01046FDF768F96EA010210B467822FE
:104CB000CDE9001050211046FDF75EF96DA01021DE
:104CC0000B466422CDE9001011468C20FDF754F903
:104CD0006CA010210B466422CDE9001078218C20B5
:104CE000FDF74AF956A010210B466422CDE90010C9
:104CF0008C210846FDF740F946A010210B4664229E
:104D0000CDE900108C210846FDF736F900E013E0EC
:104D100060A010210B466422CDE90010A0218C2058
:104D2000FDF72AF95FA010210B465022CDE90010B3
:104D3000E0210020FDF720F900204649087000E03E
:104D400000BF00BF40E03FE03EE03DE03CE03BE034
:104D500001205749087037E000205549087033E0BA
:104D600099F8001053A0FDF759FC2DE054A0FDF771
:104D700055FC29E0A07961792279E378CDE9003208
:104D8000CDE90210A378228852A15848FDF756FCBD
:104D9000564810210B469622CDE90010E0215A20FA
:104DA000FDF7EAF864215148FBF759FA0CE050A0EE
:104DB000FDF734FC53A0FDF731FC9AF8001055A024
:104DC000FDF72CFC00E000BF00BF08F1010000F07F
:104DD000FF08307840453FF75EAE002055E6000002
:104DE000721900204576743A204556454E545F436B
:104DF00054524C2025640A00030000207400002057
:104E0000008021424C69676874204F50454E202035
:104E1000200000004C6967687420434C4F534520C4
:104E20002000000000402242020000207500002007
:104E300053756E204F50454E20202020200000004A
:104E400053756E20434C4F53452020202000000016
:104E500008000020760000204155544F2043747212
:104E60006C00000020202020202020202020202056
:104E7000202020004169724320434C4F534520209D
:104E800020000000576174657220434C4F53452049
:104E90002000000046414E20434C4F534520202027
:104EA0002000000048414E44204374726C00000012
:104EB00000000020525353492025640A00000000DE
:104EC0005452414E53504152454E545F4441544117
:104ED000200A000025642D25642D2564202530320C
:104EE000643A253032643A25303264000E190020CD
:104EF0004D4F44554C4520494E464F202E2E2E0AEC
:104F000000000000574946204D4F44554C45202E87
:104F10002E2E0A006D6F64756C6554797065203AA9
:104F2000205B25645D200A003EB500246846FEF73C
:104F300035FF17208DF80400134890F84510D0F87D
:104F40004500401C104AC2F84500C8B28DF8050063
:104F50000520FEF713FAADF8020009216846FFF7B5
:104F6000B1FB8DF808000921684602F06BF8044691
:104F7000002C03DA214605A0FDF750FB0921684605
:104F8000FFF7B4FB3EBD00008A1900204552525B7A
:104F90004E54505D3A207561727420777269746561
:104FA000206572726F72202564200A002DE9F0419D
:104FB00094B005460026002003900290002480460D
:104FC000002735B981A0FDF729FB601E14B0BDE8AC
:104FD000F081FEF769FC03AA86498748FEF70AFEBE
:104FE0000646002E71D185A0FDF718FB814C207973
:104FF0000F284FD00ADC0E2873D2DFE800F07216BB
:10500000721A7272433872724472453C182852D038
:1050100006DC112847D0142846D0162861D134E088
:10502000222854D02A285CD130E02046FEF724FD07
:105030005FE0E279A17976A0FDF7F0FA02A800908E
:1050400007F10900BDF80C301A1A6A480830C11976
:1050500004AB4046FEF768FF40B9E37904A9204657
:10506000029AFEF7C3FE6EA0FDF7D8FA41E0204693
:10507000FEF760FC3DE02046FEF75CFC2046FFF7B3
:105080000FF836E000BF00BF00BF00BF2046FFF7AB
:105090005FFB2EE02046FEF74DFC64A0FDF7BEFA54
:1050A000FFF7C4FA25E024E02046FFF751FB64A097
:1050B000FDF7B4FA1DE02046FFF74AFB2046FFF754
:1050C00071FA67A0FDF7AAFA13E013E009E02046A1
:1050D000FFF73EFB2046FEF7B5FF67A0FDF79EFAFF
:1050E00007E002212046FEF775FC6AA0FDF796FA5C
:1050F00000BF0DE016F1020F0AD13E4C01212046FF
:10510000FEF768FC69A0FDF789FA6FF001005DE722
:105110003848401E0078062851D2DFE800F05003DE
:1051200013232F3F00203349491E08701822CC3129
:10513000A1F15700FFF79AFC13212E487430FBF7BA
:105140008EF83DE000202B49491E08700122FC31F9
:10515000A1F17400FFF78AFC132126488730FBF782
:105160007EF82DE000202349491E08700846D0F83B
:10517000412021317530FFF779FC21E000201D49E5
:10518000491E08700C22FD31A1F16200FFF76EFC90
:10519000132118489A30FBF762F811E000201549F6
:1051A000491E0870412201F20911A1F15B00FFF7CD
:1051B0005DFC41210F48AD30FBF751F800E000BF26
:1051C00000BF2846FEF70CFB0020FFE647697A7710
:1051D00069747348616E646C65204572726F7220E9
:1051E0002C20496C6C6567616C20506172616D0A9E
:1051F000000000008B190020D41A0020476574209D
:105200004F6E65205061636B6574210A00000000D9
:10521000666C6167202578202578200A0000000050
:1052200041636B44617461203A200A007265706FBB
:1052300072743A4D4355207265626F6F74210A0093
:1052400041636B2050524F44554354494F4E5F4D7C
:105250004F44452073756363657373200A00000033
:1052600041636B204745545F555454207375636305
:10527000657373200A00000041636B204745545F4B
:105280004D6F64756C652073756363657373200A75
:10529000000000004552523A20636D6420636F6441
:1052A00065206572726F72210A0000004552523A01
:1052B00020636865636B2073756D206572726F7211
:1052C000210A000010B540200A4908600A48C86059
:1052D000084600F0DFFC18B908A0FDF79FF902E0CE
:1052E0000BA0FDF79BF94FF4A5710E48FAF7B7FF35
:1052F00010BD0000D41A0020E41A0020726243722C
:10530000656174652053756363657373200A0000DB
:105310007262437265617465204661696C64200A3B
:10532000000000008A19002030B587B0054600242F
:10533000062D7CD2DFE805F003305F90BDEA01A8BE
:10534000FEF72CFD0B208DF808008B4890F84510D7
:10535000D0F84500401C884AC2F84500C8B28DF814
:1053600009000520FEF70AF8ADF80600092101A89A
:10537000FFF7A8F98DF80C00092101A801F062FEE1
:105380000446002C03DA21467CA0FDF747F90921E9
:1053900001A8FFF7ABF9EAE004A8FEF7FFFC09203B
:1053A0008DF81400744890F84510D0F84500401C62
:1053B000714AC2F84500C8B28DF815008DF8185032
:1053C0000620FDF7DBFFADF812000A2104A8FFF765
:1053D00079F98DF819000A2104A801F033FE04467A
:1053E000002C03DA214665A0FDF718F90A2104A86C
:1053F000FFF77CF9BBE004A8FEF7D0FC09208DF88C
:1054000014005D4890F84510D0F84500401C5A4AF9
:10541000C2F84500C8B28DF815008DF81850062066
:10542000FDF7ACFFADF812000A2104A800E09AE0F5
:10543000FFF748F98DF819000A2104A801F002FECF
:105440000446002C03DA21464CA0FDF7E7F80A21B8
:1054500004A8FFF74BF98AE001A8FEF79FFC132090
:105460008DF80800444890F84510D0F84500401CDD
:10547000414AC2F84500C8B28DF809000520FDF781
:105480007DFFADF80600092101A8FFF71BF98DF893
:105490000C00092101A801F0D5FD0446002C03DA17
:1054A000214636A0FDF7BAF8092101A8FFF71EF939
:1054B0005DE001A8FEF772FC15208DF808002E486B
:1054C00090F84510D0F84500401C2B4AC2F8450022
:1054D000C8B28DF809000520FDF750FFADF80600B1
:1054E000092101A8FFF7EEF88DF80C00092101A8A9
:1054F00001F0A8FD0446002C03DA21461FA0FDF7A9
:105500008DF8092101A8FFF7F1F830E001A8FEF7B6
:1055100045FC29208DF80800174890F84510D0F870
:105520004500401C144AC2F84500C8B28DF8090075
:105530000520FDF723FFADF80600092101A8FFF7BC
:10554000C1F88DF80C00092101A801F07BFD04468B
:10555000002C03DA214609A0FDF760F8092101A813
:10556000FFF7C4F803E00CA0FDF758F800BF00BF38
:10557000204607B030BD00008A1900204552523A3B
:105580002075617274207772697465206572726F1C
:1055900072202564200A00004552523A2043666773
:1055A0004D6F6465206572726F72210A0000000001
:1055B0002DE9F0410546292D03D02A2D01D02D2DAE
:1055C00001D1BDE8F081102D05DBA5F11000C6B2B8
:1055D0004FF4C06401E02E4600241649601801F023
:1055E00046FA0121B14040EA0107124960183946E4
:1055F00001F059FA0F49091D601801F038FA01212C
:10560000B14020EA01070B49091D6018394601F035
:105610004AFA08490831601801F029FA0121B1401D
:1056200020EA0107034908316018394601F03BFAC6
:1056300000BFC6E7100C01402DE9F04105461D2DC5
:1056400003D02B2D01D02F2D01D1BDE8F081102DDD
:1056500005DBA5F11000C6B24FF4C06401E02E4690
:1056600000241649601801F002FA0121B14040EA15
:10567000010712496018394601F015FA0F49091D52
:10568000601801F0F4F90121B14020EA01070B494B
:10569000091D6018394601F006FA084908316018FA
:1056A00001F0E5F90121B14040EA01070349083161
:1056B0006018394601F0F7F900BFC6E7100C014049
:1056C0002DE9F0410446232C0AD0242C08D0272CA5
:1056D00006DA2CB1072C03D00D2C03DB0F2C01DCD8
:1056E000BDE8F081102C05DBA4F11000C6B24FF428
:1056F000C06501E0264600251649681801F0B7F993
:105700000121B14040EA010712496818394601F009
:10571000CAF91049091D681801F0A9F90121B14021
:1057200040EA01070B49091D6818394601F0BBF929
:1057300008490831681801F09AF90121B14020EABE
:105740000107044908316818394601F0ACF900BF77
:10575000C6E70000100C01402DE9F04104466CB191
:10576000012C0BD0062C09D00D2C01DB0F2C05DDF4
:10577000102C01DB122C01DD232C01DBBDE8F081B4
:10578000102C05DBA4F11000C6B24FF4C06501E097
:10579000264600251649681801F069F90121B14033
:1057A00040EA010712496818394601F07CF91049AE
:1057B000091D681801F05BF90121B14040EA0107B9
:1057C0000B49091D6818394601F06DF9084908317F
:1057D000681801F04CF90121B14040EA0107044981
:1057E00008316818394601F05EF900BFC6E70000CD
:1057F000100C01402DE9F0410446102C05DBA4F10A
:105800001000C6B24FF4C06501E0264600250749E6
:10581000681801F02CF90121B14020EA0107034981
:105820006818394601F03FF9BDE8F081100C0140DD
:105830002DE9F0410446162C01DB222C03DD2D2C32
:1058400003DB2F2C01DCBDE8F081102C05DBA4F17B
:105850001000C6B24FF4C06501E026460025164987
:10586000681801F004F90121B14020EA010712494A
:105870006818394601F017F90F490839681801F01E
:10588000F6F80121B14020EA01070B4908396818F0
:10589000394601F008F90849091F681801F0E7F8CE
:1058A0000121B14020EA01070349091F6818394660
:1058B00001F0F9F800BFC6E7100C01401CB5002448
:1058C0005020FDF737FC4FF4E13001F0EBFBFBF724
:1058D00086FAFCF7EFFBFCF7D5FBFBF7F9FFFCF7CB
:1058E000FDFCFCF713F901F07FFDFBF719FDFFF755
:1058F000E9FC00210846FBF76DFC96210F20FBF721
:1059000077FCAA210F20FBF78FFCBE210F20FBF7AD
:105910008BFCD0210F20FBF779FC18E070A0102140
:105920000B466E22CDE900105A218220FCF724FBA1
:10593000C820FDF711FC4FF6FF706A23F0225A21B0
:1059400000908220FCF774F86420FDF705FCFBF75B
:1059500079F80028E2D118E064A010210B466E22ED
:10596000CDE9001011468220FCF706FBC820FDF7A8
:10597000F3FB4FF6FF707E23F0226E210090822011
:10598000FCF756F8C820FDF7E7FBFBF795F9002870
:10599000E2D11F205949088059A010210B467822D6
:1059A000CDE9001082211E20FCF7E6FA58A0102154
:1059B0000B467822CDE9001096211E20FCF7DCFA78
:1059C00057A010210B467822CDE90010AA211E20F5
:1059D000FCF7D2FA56A010210B466422CDE9001044
:1059E000BE211E20FCF7C8FA54A010210B466422E9
:1059F000CDE90010D2211E20FCF7BEFA6FE001F0C5
:105A0000A7FB5248FFF7D2FA0020FBF773FF0446CA
:105A1000022C05D14EA0FCF701FE0220FFF784FC0A
:105A2000032C08D151A0FCF7F9FD0020FFF77CFC06
:105A3000002055490870012C51D11020534908709D
:105A400000205349C8630120524948638863C863F2
:105A500000204F498862086305204F4908700720DD
:105A60004E49087009204E4908700C204D490870B5
:105A70000E204D490870FBF71BFA4CA010210B4675
:105A80006422CDE9001011468C20FCF775FA4BA07A
:105A900010210B466422CDE9001078218C20FCF700
:105AA0006BFA4AA010210B466422CDE900108C212C
:105AB0000846FCF761FA49A010210B466422CDE9A3
:105AC00000108C210846FCF757FA48A010210B461D
:105AD0006422CDE90010A0218C20FCF74DFA8EE75E
:105AE0004148543130204572726F72004150333258
:105AF000313643204572726F72000000660000204C
:105B0000434F323A20202020202050504D000000EA
:105B1000414C533A2020202020204C5558000000B2
:105B2000545F736F696C3A2020202E2043000000E0
:105B300054656D703A2020202E20430048756D6911
:105B40003A2020202E202552480000007219002003
:105B500057494649BDF8C8EB4169724C696E6BC143
:105B6000ACBDD3C4A3CABD0D0A00000057494649C5
:105B7000B8B4CEBBA3ACC7EBD6D8D0C2C5E4D6C3AD
:105B8000C1ACBDD30D0A00000000002008000020B9
:105B90000040224200802142020000200300002039
:105BA0000400002005000020060000204169724327
:105BB00020434C4F5345202020000000576174655E
:105BC0007220434C4F5345202000000053756E2037
:105BD000434C4F5345202020200000004C6967684B
